{
	"NftMint.sol": {
		"MintFactory": {
			"abi": [
				{
					"inputs": [],
					"stateMutability": "nonpayable",
					"type": "constructor"
				},
				{
					"inputs": [
						{
							"internalType": "address",
							"name": "ERC721",
							"type": "address"
						},
						{
							"internalType": "uint256",
							"name": "count",
							"type": "uint256"
						}
					],
					"name": "deploy",
					"outputs": [],
					"stateMutability": "payable",
					"type": "function"
				}
			],
			"devdoc": {
				"kind": "dev",
				"methods": {},
				"version": 1
			},
			"evm": {
				"assembly": "    /* \"NftMint.sol\":646:944  contract MintFactory{... */\n  mstore(0x40, 0x80)\n    /* \"NftMint.sol\":693:741  constructor(){... */\n  callvalue\n  dup1\n  iszero\n  tag_1\n  jumpi\n  revert(0x00, 0x00)\ntag_1:\n  pop\n    /* \"NftMint.sol\":723:733  msg.sender */\n  caller\n    /* \"NftMint.sol\":717:722  owner */\n  0x00\n  0x00\n    /* \"NftMint.sol\":717:733  owner=msg.sender */\n  0x0100\n  exp\n  dup2\n  sload\n  dup2\n  0xffffffffffffffffffffffffffffffffffffffff\n  mul\n  not\n  and\n  swap1\n  dup4\n  0xffffffffffffffffffffffffffffffffffffffff\n  and\n  mul\n  or\n  swap1\n  sstore\n  pop\n    /* \"NftMint.sol\":646:944  contract MintFactory{... */\n  dataSize(sub_0)\n  dup1\n  dataOffset(sub_0)\n  0x00\n  codecopy\n  0x00\n  return\nstop\n\nsub_0: assembly {\n        /* \"NftMint.sol\":646:944  contract MintFactory{... */\n      mstore(0x40, 0x80)\n      jumpi(tag_1, lt(calldatasize, 0x04))\n      shr(0xe0, calldataload(0x00))\n      dup1\n      0x4956eaf0\n      eq\n      tag_2\n      jumpi\n    tag_1:\n      revert(0x00, 0x00)\n        /* \"NftMint.sol\":761:941  function deploy(address ERC721,uint256 count) public payable {... */\n    tag_2:\n      tag_3\n      0x04\n      dup1\n      calldatasize\n      sub\n      dup2\n      add\n      swap1\n      tag_4\n      swap2\n      swap1\n      tag_5\n      jump\t// in\n    tag_4:\n      tag_6\n      jump\t// in\n    tag_3:\n      stop\n    tag_6:\n        /* \"NftMint.sol\":837:846  uint256 i */\n      0x00\n        /* \"NftMint.sol\":847:848  0 */\n      0x00\n        /* \"NftMint.sol\":837:848  uint256 i=0 */\n      swap1\n      pop\n        /* \"NftMint.sol\":833:934  for(uint256 i=0;i<count;i++){... */\n    tag_8:\n        /* \"NftMint.sol\":851:856  count */\n      dup2\n        /* \"NftMint.sol\":849:850  i */\n      dup2\n        /* \"NftMint.sol\":849:856  i<count */\n      lt\n        /* \"NftMint.sol\":833:934  for(uint256 i=0;i<count;i++){... */\n      iszero\n      tag_9\n      jumpi\n        /* \"NftMint.sol\":897:907  0.05 ether */\n      0xb1a2bc2ec50000\n        /* \"NftMint.sol\":909:915  ERC721 */\n      dup4\n        /* \"NftMint.sol\":916:921  owner */\n      0x00\n      0x00\n      swap1\n      sload\n      swap1\n      0x0100\n      exp\n      swap1\n      div\n      0xffffffffffffffffffffffffffffffffffffffff\n      and\n        /* \"NftMint.sol\":876:922  new ERC721Mint{value:0.05 ether}(ERC721,owner) */\n      mload(0x40)\n      tag_11\n      swap1\n      tag_12\n      jump\t// in\n    tag_11:\n      tag_13\n      swap3\n      swap2\n      swap1\n      tag_14\n      jump\t// in\n    tag_13:\n      mload(0x40)\n      dup1\n      swap2\n      sub\n      swap1\n      dup3\n      create\n      swap1\n      pop\n      dup1\n      iszero\n      dup1\n      iszero\n      tag_15\n      jumpi\n      returndatacopy(0x00, 0x00, returndatasize)\n      revert(0x00, returndatasize)\n    tag_15:\n      pop\n      pop\n        /* \"NftMint.sol\":857:860  i++ */\n      dup1\n      dup1\n      0x01\n      add\n      swap2\n      pop\n      pop\n        /* \"NftMint.sol\":833:934  for(uint256 i=0;i<count;i++){... */\n      jump(tag_8)\n    tag_9:\n      pop\n        /* \"NftMint.sol\":761:941  function deploy(address ERC721,uint256 count) public payable {... */\n      pop\n      pop\n      jump\t// out\n    tag_12:\n      dataSize(sub_0)\n      dup1\n      dataOffset(sub_0)\n      dup4\n      codecopy\n      add\n      swap1\n      jump\t// out\n        /* \"#utility.yul\":88:205   */\n    tag_17:\n        /* \"#utility.yul\":197:198   */\n      0x00\n        /* \"#utility.yul\":194:195   */\n      0x00\n        /* \"#utility.yul\":187:199   */\n      revert\n        /* \"#utility.yul\":334:460   */\n    tag_19:\n        /* \"#utility.yul\":371:378   */\n      0x00\n        /* \"#utility.yul\":411:453   */\n      0xffffffffffffffffffffffffffffffffffffffff\n        /* \"#utility.yul\":404:409   */\n      dup3\n        /* \"#utility.yul\":400:454   */\n      and\n        /* \"#utility.yul\":389:454   */\n      swap1\n      pop\n        /* \"#utility.yul\":334:460   */\n      swap2\n      swap1\n      pop\n      jump\t// out\n        /* \"#utility.yul\":466:562   */\n    tag_20:\n        /* \"#utility.yul\":503:510   */\n      0x00\n        /* \"#utility.yul\":532:556   */\n      tag_33\n        /* \"#utility.yul\":550:555   */\n      dup3\n        /* \"#utility.yul\":532:556   */\n      tag_19\n      jump\t// in\n    tag_33:\n        /* \"#utility.yul\":521:556   */\n      swap1\n      pop\n        /* \"#utility.yul\":466:562   */\n      swap2\n      swap1\n      pop\n      jump\t// out\n        /* \"#utility.yul\":568:690   */\n    tag_21:\n        /* \"#utility.yul\":641:665   */\n      tag_35\n        /* \"#utility.yul\":659:664   */\n      dup2\n        /* \"#utility.yul\":641:665   */\n      tag_20\n      jump\t// in\n    tag_35:\n        /* \"#utility.yul\":634:639   */\n      dup2\n        /* \"#utility.yul\":631:666   */\n      eq\n        /* \"#utility.yul\":621:684   */\n      tag_36\n      jumpi\n        /* \"#utility.yul\":680:681   */\n      0x00\n        /* \"#utility.yul\":677:678   */\n      0x00\n        /* \"#utility.yul\":670:682   */\n      revert\n        /* \"#utility.yul\":621:684   */\n    tag_36:\n        /* \"#utility.yul\":568:690   */\n      pop\n      jump\t// out\n        /* \"#utility.yul\":696:835   */\n    tag_22:\n        /* \"#utility.yul\":742:747   */\n      0x00\n        /* \"#utility.yul\":780:786   */\n      dup2\n        /* \"#utility.yul\":767:787   */\n      calldataload\n        /* \"#utility.yul\":758:787   */\n      swap1\n      pop\n        /* \"#utility.yul\":796:829   */\n      tag_38\n        /* \"#utility.yul\":823:828   */\n      dup2\n        /* \"#utility.yul\":796:829   */\n      tag_21\n      jump\t// in\n    tag_38:\n        /* \"#utility.yul\":696:835   */\n      swap3\n      swap2\n      pop\n      pop\n      jump\t// out\n        /* \"#utility.yul\":841:918   */\n    tag_23:\n        /* \"#utility.yul\":878:885   */\n      0x00\n        /* \"#utility.yul\":907:912   */\n      dup2\n        /* \"#utility.yul\":896:912   */\n      swap1\n      pop\n        /* \"#utility.yul\":841:918   */\n      swap2\n      swap1\n      pop\n      jump\t// out\n        /* \"#utility.yul\":924:1046   */\n    tag_24:\n        /* \"#utility.yul\":997:1021   */\n      tag_41\n        /* \"#utility.yul\":1015:1020   */\n      dup2\n        /* \"#utility.yul\":997:1021   */\n      tag_23\n      jump\t// in\n    tag_41:\n        /* \"#utility.yul\":990:995   */\n      dup2\n        /* \"#utility.yul\":987:1022   */\n      eq\n        /* \"#utility.yul\":977:1040   */\n      tag_42\n      jumpi\n        /* \"#utility.yul\":1036:1037   */\n      0x00\n        /* \"#utility.yul\":1033:1034   */\n      0x00\n        /* \"#utility.yul\":1026:1038   */\n      revert\n        /* \"#utility.yul\":977:1040   */\n    tag_42:\n        /* \"#utility.yul\":924:1046   */\n      pop\n      jump\t// out\n        /* \"#utility.yul\":1052:1191   */\n    tag_25:\n        /* \"#utility.yul\":1098:1103   */\n      0x00\n        /* \"#utility.yul\":1136:1142   */\n      dup2\n        /* \"#utility.yul\":1123:1143   */\n      calldataload\n        /* \"#utility.yul\":1114:1143   */\n      swap1\n      pop\n        /* \"#utility.yul\":1152:1185   */\n      tag_44\n        /* \"#utility.yul\":1179:1184   */\n      dup2\n        /* \"#utility.yul\":1152:1185   */\n      tag_24\n      jump\t// in\n    tag_44:\n        /* \"#utility.yul\":1052:1191   */\n      swap3\n      swap2\n      pop\n      pop\n      jump\t// out\n        /* \"#utility.yul\":1197:1671   */\n    tag_5:\n        /* \"#utility.yul\":1265:1271   */\n      0x00\n        /* \"#utility.yul\":1273:1279   */\n      0x00\n        /* \"#utility.yul\":1322:1324   */\n      0x40\n        /* \"#utility.yul\":1310:1319   */\n      dup4\n        /* \"#utility.yul\":1301:1308   */\n      dup6\n        /* \"#utility.yul\":1297:1320   */\n      sub\n        /* \"#utility.yul\":1293:1325   */\n      slt\n        /* \"#utility.yul\":1290:1409   */\n      iszero\n      tag_46\n      jumpi\n        /* \"#utility.yul\":1328:1407   */\n      tag_47\n      tag_17\n      jump\t// in\n    tag_47:\n        /* \"#utility.yul\":1290:1409   */\n    tag_46:\n        /* \"#utility.yul\":1448:1449   */\n      0x00\n        /* \"#utility.yul\":1473:1526   */\n      tag_48\n        /* \"#utility.yul\":1518:1525   */\n      dup6\n        /* \"#utility.yul\":1509:1515   */\n      dup3\n        /* \"#utility.yul\":1498:1507   */\n      dup7\n        /* \"#utility.yul\":1494:1516   */\n      add\n        /* \"#utility.yul\":1473:1526   */\n      tag_22\n      jump\t// in\n    tag_48:\n        /* \"#utility.yul\":1463:1526   */\n      swap3\n      pop\n        /* \"#utility.yul\":1419:1536   */\n      pop\n        /* \"#utility.yul\":1575:1577   */\n      0x20\n        /* \"#utility.yul\":1601:1654   */\n      tag_49\n        /* \"#utility.yul\":1646:1653   */\n      dup6\n        /* \"#utility.yul\":1637:1643   */\n      dup3\n        /* \"#utility.yul\":1626:1635   */\n      dup7\n        /* \"#utility.yul\":1622:1644   */\n      add\n        /* \"#utility.yul\":1601:1654   */\n      tag_25\n      jump\t// in\n    tag_49:\n        /* \"#utility.yul\":1591:1654   */\n      swap2\n      pop\n        /* \"#utility.yul\":1546:1664   */\n      pop\n        /* \"#utility.yul\":1197:1671   */\n      swap3\n      pop\n      swap3\n      swap1\n      pop\n      jump\t// out\n        /* \"#utility.yul\":1677:1795   */\n    tag_26:\n        /* \"#utility.yul\":1764:1788   */\n      tag_51\n        /* \"#utility.yul\":1782:1787   */\n      dup2\n        /* \"#utility.yul\":1764:1788   */\n      tag_20\n      jump\t// in\n    tag_51:\n        /* \"#utility.yul\":1759:1762   */\n      dup3\n        /* \"#utility.yul\":1752:1789   */\n      mstore\n        /* \"#utility.yul\":1677:1795   */\n      pop\n      pop\n      jump\t// out\n        /* \"#utility.yul\":1801:2133   */\n    tag_14:\n        /* \"#utility.yul\":1922:1926   */\n      0x00\n        /* \"#utility.yul\":1960:1962   */\n      0x40\n        /* \"#utility.yul\":1949:1958   */\n      dup3\n        /* \"#utility.yul\":1945:1963   */\n      add\n        /* \"#utility.yul\":1937:1963   */\n      swap1\n      pop\n        /* \"#utility.yul\":1973:2044   */\n      tag_53\n        /* \"#utility.yul\":2041:2042   */\n      0x00\n        /* \"#utility.yul\":2030:2039   */\n      dup4\n        /* \"#utility.yul\":2026:2043   */\n      add\n        /* \"#utility.yul\":2017:2023   */\n      dup6\n        /* \"#utility.yul\":1973:2044   */\n      tag_26\n      jump\t// in\n    tag_53:\n        /* \"#utility.yul\":2054:2126   */\n      tag_54\n        /* \"#utility.yul\":2122:2124   */\n      0x20\n        /* \"#utility.yul\":2111:2120   */\n      dup4\n        /* \"#utility.yul\":2107:2125   */\n      add\n        /* \"#utility.yul\":2098:2104   */\n      dup5\n        /* \"#utility.yul\":2054:2126   */\n      tag_26\n      jump\t// in\n    tag_54:\n        /* \"#utility.yul\":1801:2133   */\n      swap4\n      swap3\n      pop\n      pop\n      pop\n      jump\t// out\n    stop\n\n    sub_0: assembly {\n            /* \"NftMint.sol\":280:642  contract ERC721Mint{... */\n          mstore(0x40, 0x80)\n            /* \"NftMint.sol\":306:639  constructor(address ERC721,address owner)payable {... */\n          mload(0x40)\n          sub(codesize, bytecodeSize)\n          dup1\n          bytecodeSize\n          dup4\n          codecopy\n          dup2\n          dup2\n          add\n          0x40\n          mstore\n          dup2\n          add\n          swap1\n          tag_1\n          swap2\n          swap1\n          tag_2\n          jump\t// in\n        tag_1:\n            /* \"NftMint.sol\":366:375  uint256 t */\n          0x00\n            /* \"NftMint.sol\":385:391  ERC721 */\n          dup3\n            /* \"NftMint.sol\":376:404  INftMint(ERC721).totalSupply */\n          0xffffffffffffffffffffffffffffffffffffffff\n          and\n          0x18160ddd\n            /* \"NftMint.sol\":376:406  INftMint(ERC721).totalSupply() */\n          mload(0x40)\n          dup2\n          0xffffffff\n          and\n          0xe0\n          shl\n          dup2\n          mstore\n          0x04\n          add\n          0x20\n          mload(0x40)\n          dup1\n          dup4\n          sub\n          dup2\n          dup7\n          gas\n          staticcall\n          iszero\n          dup1\n          iszero\n          tag_6\n          jumpi\n          returndatacopy(0x00, 0x00, returndatasize)\n          revert(0x00, returndatasize)\n        tag_6:\n          pop\n          pop\n          pop\n          pop\n          mload(0x40)\n          returndatasize\n          not(0x1f)\n          0x1f\n          dup3\n          add\n          and\n          dup3\n          add\n          dup1\n          0x40\n          mstore\n          pop\n          dup2\n          add\n          swap1\n          tag_7\n          swap2\n          swap1\n          tag_8\n          jump\t// in\n        tag_7:\n            /* \"NftMint.sol\":366:406  uint256 t=INftMint(ERC721).totalSupply() */\n          swap1\n          pop\n            /* \"NftMint.sol\":426:432  ERC721 */\n          dup3\n            /* \"NftMint.sol\":417:438  INftMint(ERC721).mint */\n          0xffffffffffffffffffffffffffffffffffffffff\n          and\n          0xa0712d68\n            /* \"NftMint.sol\":445:454  0.5 ether */\n          0x06f05b59d3b20000\n            /* \"NftMint.sol\":456:457  5 */\n          0x05\n            /* \"NftMint.sol\":417:458  INftMint(ERC721).mint{value:0.5 ether}(5) */\n          mload(0x40)\n          dup4\n          0xffffffff\n          and\n          0xe0\n          shl\n          dup2\n          mstore\n          0x04\n          add\n          tag_9\n          swap2\n          swap1\n          tag_10\n          jump\t// in\n        tag_9:\n          0x00\n          mload(0x40)\n          dup1\n          dup4\n          sub\n          dup2\n          dup6\n          dup9\n          dup1\n          extcodesize\n          iszero\n          dup1\n          iszero\n          tag_11\n          jumpi\n          revert(0x00, 0x00)\n        tag_11:\n          pop\n          gas\n          call\n          iszero\n          dup1\n          iszero\n          tag_13\n          jumpi\n          returndatacopy(0x00, 0x00, returndatasize)\n          revert(0x00, returndatasize)\n        tag_13:\n          pop\n          pop\n          pop\n          pop\n          pop\n            /* \"NftMint.sol\":473:479  uint i */\n          0x00\n            /* \"NftMint.sol\":480:481  1 */\n          0x01\n            /* \"NftMint.sol\":473:481  uint i=1 */\n          swap1\n          pop\n            /* \"NftMint.sol\":469:572  for(uint i=1;i<=5;i++){... */\n        tag_14:\n            /* \"NftMint.sol\":485:486  5 */\n          0x05\n            /* \"NftMint.sol\":482:483  i */\n          dup2\n            /* \"NftMint.sol\":482:486  i<=5 */\n          gt\n            /* \"NftMint.sol\":469:572  for(uint i=1;i<=5;i++){... */\n          tag_15\n          jumpi\n            /* \"NftMint.sol\":515:521  ERC721 */\n          dup4\n            /* \"NftMint.sol\":506:535  INftMint(ERC721).transferFrom */\n          0xffffffffffffffffffffffffffffffffffffffff\n          and\n          0x23b872dd\n            /* \"NftMint.sol\":544:548  this */\n          address\n            /* \"NftMint.sol\":550:555  owner */\n          dup6\n            /* \"NftMint.sol\":558:559  i */\n          dup5\n            /* \"NftMint.sol\":556:557  t */\n          dup7\n            /* \"NftMint.sol\":556:559  t+i */\n          tag_17\n          swap2\n          swap1\n          tag_18\n          jump\t// in\n        tag_17:\n            /* \"NftMint.sol\":506:560  INftMint(ERC721).transferFrom(address(this),owner,t+i) */\n          mload(0x40)\n          dup5\n          0xffffffff\n          and\n          0xe0\n          shl\n          dup2\n          mstore\n          0x04\n          add\n          tag_19\n          swap4\n          swap3\n          swap2\n          swap1\n          tag_20\n          jump\t// in\n        tag_19:\n          0x00\n          mload(0x40)\n          dup1\n          dup4\n          sub\n          dup2\n          0x00\n          dup8\n          dup1\n          extcodesize\n          iszero\n          dup1\n          iszero\n          tag_21\n          jumpi\n          revert(0x00, 0x00)\n        tag_21:\n          pop\n          gas\n          call\n          iszero\n          dup1\n          iszero\n          tag_23\n          jumpi\n          returndatacopy(0x00, 0x00, returndatasize)\n          revert(0x00, returndatasize)\n        tag_23:\n          pop\n          pop\n          pop\n          pop\n            /* \"NftMint.sol\":487:490  i++ */\n          dup1\n          dup1\n          tag_24\n          swap1\n          tag_25\n          jump\t// in\n        tag_24:\n          swap2\n          pop\n          pop\n            /* \"NftMint.sol\":469:572  for(uint i=1;i<=5;i++){... */\n          jump(tag_14)\n        tag_15:\n          pop\n            /* \"NftMint.sol\":355:639  {... */\n          pop\n            /* \"NftMint.sol\":306:639  constructor(address ERC721,address owner)payable {... */\n          pop\n          pop\n            /* \"NftMint.sol\":280:642  contract ERC721Mint{... */\n          jump(tag_26)\n            /* \"#utility.yul\":88:205   */\n        tag_28:\n            /* \"#utility.yul\":197:198   */\n          0x00\n            /* \"#utility.yul\":194:195   */\n          0x00\n            /* \"#utility.yul\":187:199   */\n          revert\n            /* \"#utility.yul\":334:460   */\n        tag_30:\n            /* \"#utility.yul\":371:378   */\n          0x00\n            /* \"#utility.yul\":411:453   */\n          0xffffffffffffffffffffffffffffffffffffffff\n            /* \"#utility.yul\":404:409   */\n          dup3\n            /* \"#utility.yul\":400:454   */\n          and\n            /* \"#utility.yul\":389:454   */\n          swap1\n          pop\n            /* \"#utility.yul\":334:460   */\n          swap2\n          swap1\n          pop\n          jump\t// out\n            /* \"#utility.yul\":466:562   */\n        tag_31:\n            /* \"#utility.yul\":503:510   */\n          0x00\n            /* \"#utility.yul\":532:556   */\n          tag_50\n            /* \"#utility.yul\":550:555   */\n          dup3\n            /* \"#utility.yul\":532:556   */\n          tag_30\n          jump\t// in\n        tag_50:\n            /* \"#utility.yul\":521:556   */\n          swap1\n          pop\n            /* \"#utility.yul\":466:562   */\n          swap2\n          swap1\n          pop\n          jump\t// out\n            /* \"#utility.yul\":568:690   */\n        tag_32:\n            /* \"#utility.yul\":641:665   */\n          tag_52\n            /* \"#utility.yul\":659:664   */\n          dup2\n            /* \"#utility.yul\":641:665   */\n          tag_31\n          jump\t// in\n        tag_52:\n            /* \"#utility.yul\":634:639   */\n          dup2\n            /* \"#utility.yul\":631:666   */\n          eq\n            /* \"#utility.yul\":621:684   */\n          tag_53\n          jumpi\n            /* \"#utility.yul\":680:681   */\n          0x00\n            /* \"#utility.yul\":677:678   */\n          0x00\n            /* \"#utility.yul\":670:682   */\n          revert\n            /* \"#utility.yul\":621:684   */\n        tag_53:\n            /* \"#utility.yul\":568:690   */\n          pop\n          jump\t// out\n            /* \"#utility.yul\":696:839   */\n        tag_33:\n            /* \"#utility.yul\":753:758   */\n          0x00\n            /* \"#utility.yul\":784:790   */\n          dup2\n            /* \"#utility.yul\":778:791   */\n          mload\n            /* \"#utility.yul\":769:791   */\n          swap1\n          pop\n            /* \"#utility.yul\":800:833   */\n          tag_55\n            /* \"#utility.yul\":827:832   */\n          dup2\n            /* \"#utility.yul\":800:833   */\n          tag_32\n          jump\t// in\n        tag_55:\n            /* \"#utility.yul\":696:839   */\n          swap3\n          swap2\n          pop\n          pop\n          jump\t// out\n            /* \"#utility.yul\":845:1352   */\n        tag_2:\n            /* \"#utility.yul\":924:930   */\n          0x00\n            /* \"#utility.yul\":932:938   */\n          0x00\n            /* \"#utility.yul\":981:983   */\n          0x40\n            /* \"#utility.yul\":969:978   */\n          dup4\n            /* \"#utility.yul\":960:967   */\n          dup6\n            /* \"#utility.yul\":956:979   */\n          sub\n            /* \"#utility.yul\":952:984   */\n          slt\n            /* \"#utility.yul\":949:1068   */\n          iszero\n          tag_57\n          jumpi\n            /* \"#utility.yul\":987:1066   */\n          tag_58\n          tag_28\n          jump\t// in\n        tag_58:\n            /* \"#utility.yul\":949:1068   */\n        tag_57:\n            /* \"#utility.yul\":1107:1108   */\n          0x00\n            /* \"#utility.yul\":1132:1196   */\n          tag_59\n            /* \"#utility.yul\":1188:1195   */\n          dup6\n            /* \"#utility.yul\":1179:1185   */\n          dup3\n            /* \"#utility.yul\":1168:1177   */\n          dup7\n            /* \"#utility.yul\":1164:1186   */\n          add\n            /* \"#utility.yul\":1132:1196   */\n          tag_33\n          jump\t// in\n        tag_59:\n            /* \"#utility.yul\":1122:1196   */\n          swap3\n          pop\n            /* \"#utility.yul\":1078:1206   */\n          pop\n            /* \"#utility.yul\":1245:1247   */\n          0x20\n            /* \"#utility.yul\":1271:1335   */\n          tag_60\n            /* \"#utility.yul\":1327:1334   */\n          dup6\n            /* \"#utility.yul\":1318:1324   */\n          dup3\n            /* \"#utility.yul\":1307:1316   */\n          dup7\n            /* \"#utility.yul\":1303:1325   */\n          add\n            /* \"#utility.yul\":1271:1335   */\n          tag_33\n          jump\t// in\n        tag_60:\n            /* \"#utility.yul\":1261:1335   */\n          swap2\n          pop\n            /* \"#utility.yul\":1216:1345   */\n          pop\n            /* \"#utility.yul\":845:1352   */\n          swap3\n          pop\n          swap3\n          swap1\n          pop\n          jump\t// out\n            /* \"#utility.yul\":1358:1435   */\n        tag_34:\n            /* \"#utility.yul\":1395:1402   */\n          0x00\n            /* \"#utility.yul\":1424:1429   */\n          dup2\n            /* \"#utility.yul\":1413:1429   */\n          swap1\n          pop\n            /* \"#utility.yul\":1358:1435   */\n          swap2\n          swap1\n          pop\n          jump\t// out\n            /* \"#utility.yul\":1441:1563   */\n        tag_35:\n            /* \"#utility.yul\":1514:1538   */\n          tag_63\n            /* \"#utility.yul\":1532:1537   */\n          dup2\n            /* \"#utility.yul\":1514:1538   */\n          tag_34\n          jump\t// in\n        tag_63:\n            /* \"#utility.yul\":1507:1512   */\n          dup2\n            /* \"#utility.yul\":1504:1539   */\n          eq\n            /* \"#utility.yul\":1494:1557   */\n          tag_64\n          jumpi\n            /* \"#utility.yul\":1553:1554   */\n          0x00\n            /* \"#utility.yul\":1550:1551   */\n          0x00\n            /* \"#utility.yul\":1543:1555   */\n          revert\n            /* \"#utility.yul\":1494:1557   */\n        tag_64:\n            /* \"#utility.yul\":1441:1563   */\n          pop\n          jump\t// out\n            /* \"#utility.yul\":1569:1712   */\n        tag_36:\n            /* \"#utility.yul\":1626:1631   */\n          0x00\n            /* \"#utility.yul\":1657:1663   */\n          dup2\n            /* \"#utility.yul\":1651:1664   */\n          mload\n            /* \"#utility.yul\":1642:1664   */\n          swap1\n          pop\n            /* \"#utility.yul\":1673:1706   */\n          tag_66\n            /* \"#utility.yul\":1700:1705   */\n          dup2\n            /* \"#utility.yul\":1673:1706   */\n          tag_35\n          jump\t// in\n        tag_66:\n            /* \"#utility.yul\":1569:1712   */\n          swap3\n          swap2\n          pop\n          pop\n          jump\t// out\n            /* \"#utility.yul\":1718:2069   */\n        tag_8:\n            /* \"#utility.yul\":1788:1794   */\n          0x00\n            /* \"#utility.yul\":1837:1839   */\n          0x20\n            /* \"#utility.yul\":1825:1834   */\n          dup3\n            /* \"#utility.yul\":1816:1823   */\n          dup5\n            /* \"#utility.yul\":1812:1835   */\n          sub\n            /* \"#utility.yul\":1808:1840   */\n          slt\n            /* \"#utility.yul\":1805:1924   */\n          iszero\n          tag_68\n          jumpi\n            /* \"#utility.yul\":1843:1922   */\n          tag_69\n          tag_28\n          jump\t// in\n        tag_69:\n            /* \"#utility.yul\":1805:1924   */\n        tag_68:\n            /* \"#utility.yul\":1963:1964   */\n          0x00\n            /* \"#utility.yul\":1988:2052   */\n          tag_70\n            /* \"#utility.yul\":2044:2051   */\n          dup5\n            /* \"#utility.yul\":2035:2041   */\n          dup3\n            /* \"#utility.yul\":2024:2033   */\n          dup6\n            /* \"#utility.yul\":2020:2042   */\n          add\n            /* \"#utility.yul\":1988:2052   */\n          tag_36\n          jump\t// in\n        tag_70:\n            /* \"#utility.yul\":1978:2052   */\n          swap2\n          pop\n            /* \"#utility.yul\":1934:2062   */\n          pop\n            /* \"#utility.yul\":1718:2069   */\n          swap3\n          swap2\n          pop\n          pop\n          jump\t// out\n            /* \"#utility.yul\":2075:2160   */\n        tag_37:\n            /* \"#utility.yul\":2120:2127   */\n          0x00\n            /* \"#utility.yul\":2149:2154   */\n          dup2\n            /* \"#utility.yul\":2138:2154   */\n          swap1\n          pop\n            /* \"#utility.yul\":2075:2160   */\n          swap2\n          swap1\n          pop\n          jump\t// out\n            /* \"#utility.yul\":2166:2226   */\n        tag_38:\n            /* \"#utility.yul\":2194:2197   */\n          0x00\n            /* \"#utility.yul\":2215:2220   */\n          dup2\n            /* \"#utility.yul\":2208:2220   */\n          swap1\n          pop\n            /* \"#utility.yul\":2166:2226   */\n          swap2\n          swap1\n          pop\n          jump\t// out\n            /* \"#utility.yul\":2232:2390   */\n        tag_39:\n            /* \"#utility.yul\":2290:2299   */\n          0x00\n            /* \"#utility.yul\":2323:2384   */\n          tag_74\n            /* \"#utility.yul\":2341:2383   */\n          tag_75\n            /* \"#utility.yul\":2350:2382   */\n          tag_76\n            /* \"#utility.yul\":2376:2381   */\n          dup5\n            /* \"#utility.yul\":2350:2382   */\n          tag_37\n          jump\t// in\n        tag_76:\n            /* \"#utility.yul\":2341:2383   */\n          tag_38\n          jump\t// in\n        tag_75:\n            /* \"#utility.yul\":2323:2384   */\n          tag_34\n          jump\t// in\n        tag_74:\n            /* \"#utility.yul\":2310:2384   */\n          swap1\n          pop\n            /* \"#utility.yul\":2232:2390   */\n          swap2\n          swap1\n          pop\n          jump\t// out\n            /* \"#utility.yul\":2396:2543   */\n        tag_40:\n            /* \"#utility.yul\":2491:2536   */\n          tag_78\n            /* \"#utility.yul\":2530:2535   */\n          dup2\n            /* \"#utility.yul\":2491:2536   */\n          tag_39\n          jump\t// in\n        tag_78:\n            /* \"#utility.yul\":2486:2489   */\n          dup3\n            /* \"#utility.yul\":2479:2537   */\n          mstore\n            /* \"#utility.yul\":2396:2543   */\n          pop\n          pop\n          jump\t// out\n            /* \"#utility.yul\":2549:2787   */\n        tag_10:\n            /* \"#utility.yul\":2650:2654   */\n          0x00\n            /* \"#utility.yul\":2688:2690   */\n          0x20\n            /* \"#utility.yul\":2677:2686   */\n          dup3\n            /* \"#utility.yul\":2673:2691   */\n          add\n            /* \"#utility.yul\":2665:2691   */\n          swap1\n          pop\n            /* \"#utility.yul\":2701:2780   */\n          tag_80\n            /* \"#utility.yul\":2777:2778   */\n          0x00\n            /* \"#utility.yul\":2766:2775   */\n          dup4\n            /* \"#utility.yul\":2762:2779   */\n          add\n            /* \"#utility.yul\":2753:2759   */\n          dup5\n            /* \"#utility.yul\":2701:2780   */\n          tag_40\n          jump\t// in\n        tag_80:\n            /* \"#utility.yul\":2549:2787   */\n          swap3\n          swap2\n          pop\n          pop\n          jump\t// out\n            /* \"#utility.yul\":2793:2973   */\n        tag_41:\n            /* \"#utility.yul\":2841:2918   */\n          0x4e487b7100000000000000000000000000000000000000000000000000000000\n            /* \"#utility.yul\":2838:2839   */\n          0x00\n            /* \"#utility.yul\":2831:2919   */\n          mstore\n            /* \"#utility.yul\":2938:2942   */\n          0x11\n            /* \"#utility.yul\":2935:2936   */\n          0x04\n            /* \"#utility.yul\":2928:2943   */\n          mstore\n            /* \"#utility.yul\":2962:2966   */\n          0x24\n            /* \"#utility.yul\":2959:2960   */\n          0x00\n            /* \"#utility.yul\":2952:2967   */\n          revert\n            /* \"#utility.yul\":2979:3170   */\n        tag_18:\n            /* \"#utility.yul\":3019:3022   */\n          0x00\n            /* \"#utility.yul\":3038:3058   */\n          tag_83\n            /* \"#utility.yul\":3056:3057   */\n          dup3\n            /* \"#utility.yul\":3038:3058   */\n          tag_34\n          jump\t// in\n        tag_83:\n            /* \"#utility.yul\":3033:3058   */\n          swap2\n          pop\n            /* \"#utility.yul\":3072:3092   */\n          tag_84\n            /* \"#utility.yul\":3090:3091   */\n          dup4\n            /* \"#utility.yul\":3072:3092   */\n          tag_34\n          jump\t// in\n        tag_84:\n            /* \"#utility.yul\":3067:3092   */\n          swap3\n          pop\n            /* \"#utility.yul\":3115:3116   */\n          dup3\n            /* \"#utility.yul\":3112:3113   */\n          dup3\n            /* \"#utility.yul\":3108:3117   */\n          add\n            /* \"#utility.yul\":3101:3117   */\n          swap1\n          pop\n            /* \"#utility.yul\":3136:3139   */\n          dup1\n            /* \"#utility.yul\":3133:3134   */\n          dup3\n            /* \"#utility.yul\":3130:3140   */\n          gt\n            /* \"#utility.yul\":3127:3163   */\n          iszero\n          tag_85\n          jumpi\n            /* \"#utility.yul\":3143:3161   */\n          tag_86\n          tag_41\n          jump\t// in\n        tag_86:\n            /* \"#utility.yul\":3127:3163   */\n        tag_85:\n            /* \"#utility.yul\":2979:3170   */\n          swap3\n          swap2\n          pop\n          pop\n          jump\t// out\n            /* \"#utility.yul\":3176:3294   */\n        tag_42:\n            /* \"#utility.yul\":3263:3287   */\n          tag_88\n            /* \"#utility.yul\":3281:3286   */\n          dup2\n            /* \"#utility.yul\":3263:3287   */\n          tag_31\n          jump\t// in\n        tag_88:\n            /* \"#utility.yul\":3258:3261   */\n          dup3\n            /* \"#utility.yul\":3251:3288   */\n          mstore\n            /* \"#utility.yul\":3176:3294   */\n          pop\n          pop\n          jump\t// out\n            /* \"#utility.yul\":3300:3418   */\n        tag_43:\n            /* \"#utility.yul\":3387:3411   */\n          tag_90\n            /* \"#utility.yul\":3405:3410   */\n          dup2\n            /* \"#utility.yul\":3387:3411   */\n          tag_34\n          jump\t// in\n        tag_90:\n            /* \"#utility.yul\":3382:3385   */\n          dup3\n            /* \"#utility.yul\":3375:3412   */\n          mstore\n            /* \"#utility.yul\":3300:3418   */\n          pop\n          pop\n          jump\t// out\n            /* \"#utility.yul\":3424:3866   */\n        tag_20:\n            /* \"#utility.yul\":3573:3577   */\n          0x00\n            /* \"#utility.yul\":3611:3613   */\n          0x60\n            /* \"#utility.yul\":3600:3609   */\n          dup3\n            /* \"#utility.yul\":3596:3614   */\n          add\n            /* \"#utility.yul\":3588:3614   */\n          swap1\n          pop\n            /* \"#utility.yul\":3624:3695   */\n          tag_92\n            /* \"#utility.yul\":3692:3693   */\n          0x00\n            /* \"#utility.yul\":3681:3690   */\n          dup4\n            /* \"#utility.yul\":3677:3694   */\n          add\n            /* \"#utility.yul\":3668:3674   */\n          dup7\n            /* \"#utility.yul\":3624:3695   */\n          tag_42\n          jump\t// in\n        tag_92:\n            /* \"#utility.yul\":3705:3777   */\n          tag_93\n            /* \"#utility.yul\":3773:3775   */\n          0x20\n            /* \"#utility.yul\":3762:3771   */\n          dup4\n            /* \"#utility.yul\":3758:3776   */\n          add\n            /* \"#utility.yul\":3749:3755   */\n          dup6\n            /* \"#utility.yul\":3705:3777   */\n          tag_42\n          jump\t// in\n        tag_93:\n            /* \"#utility.yul\":3787:3859   */\n          tag_94\n            /* \"#utility.yul\":3855:3857   */\n          0x40\n            /* \"#utility.yul\":3844:3853   */\n          dup4\n            /* \"#utility.yul\":3840:3858   */\n          add\n            /* \"#utility.yul\":3831:3837   */\n          dup5\n            /* \"#utility.yul\":3787:3859   */\n          tag_43\n          jump\t// in\n        tag_94:\n            /* \"#utility.yul\":3424:3866   */\n          swap5\n          swap4\n          pop\n          pop\n          pop\n          pop\n          jump\t// out\n            /* \"#utility.yul\":3872:4105   */\n        tag_25:\n            /* \"#utility.yul\":3911:3914   */\n          0x00\n            /* \"#utility.yul\":3934:3958   */\n          tag_96\n            /* \"#utility.yul\":3952:3957   */\n          dup3\n            /* \"#utility.yul\":3934:3958   */\n          tag_34\n          jump\t// in\n        tag_96:\n            /* \"#utility.yul\":3925:3958   */\n          swap2\n          pop\n            /* \"#utility.yul\":3980:4046   */\n          0xffffffffffffffffffffffffffffffffffffffffffffffffffffffffffffffff\n            /* \"#utility.yul\":3973:3978   */\n          dup3\n            /* \"#utility.yul\":3970:4047   */\n          sub\n            /* \"#utility.yul\":3967:4070   */\n          tag_97\n          jumpi\n            /* \"#utility.yul\":4050:4068   */\n          tag_98\n          tag_41\n          jump\t// in\n        tag_98:\n            /* \"#utility.yul\":3967:4070   */\n        tag_97:\n            /* \"#utility.yul\":4097:4098   */\n          0x01\n            /* \"#utility.yul\":4090:4095   */\n          dup3\n            /* \"#utility.yul\":4086:4099   */\n          add\n            /* \"#utility.yul\":4079:4099   */\n          swap1\n          pop\n            /* \"#utility.yul\":3872:4105   */\n          swap2\n          swap1\n          pop\n          jump\t// out\n            /* \"NftMint.sol\":280:642  contract ERC721Mint{... */\n        tag_26:\n          dataSize(sub_0)\n          dup1\n          dataOffset(sub_0)\n          0x00\n          codecopy\n          0x00\n          return\n        stop\n\n        sub_0: assembly {\n                /* \"NftMint.sol\":280:642  contract ERC721Mint{... */\n              mstore(0x40, 0x80)\n              revert(0x00, 0x00)\n\n            auxdata: 0xa2646970667358221220eea836ef4f16303b690b51ef2a516a0fc64f1a79355cb9f469825c6bd5a0055264736f6c634300081e0033\n        }\n    }\n\n    auxdata: 0xa2646970667358221220638a843277b514fa5c0012dd0941a93a1fd21913ddc7e91badb98d447e690b1e64736f6c634300081e0033\n}\n",
				"bytecode": {
					"linkReferences": {},
					"object": "6080604052348015600e575f5ffd5b50335f5f6101000a81548173ffffffffffffffffffffffffffffffffffffffff021916908373ffffffffffffffffffffffffffffffffffffffff1602179055506106408061005b5f395ff3fe60806040526004361061001d575f3560e01c80634956eaf014610021575b5f5ffd5b61003b60048036038101906100369190610158565b61003d565b005b5f5f90505b818110156100b55766b1a2bc2ec50000835f5f9054906101000a900473ffffffffffffffffffffffffffffffffffffffff16604051610080906100ba565b61008b9291906101a5565b6040518091039082f09050801580156100a6573d5f5f3e3d5ffd5b50508080600101915050610042565b505050565b61043e806101cd83390190565b5f5ffd5b5f73ffffffffffffffffffffffffffffffffffffffff82169050919050565b5f6100f4826100cb565b9050919050565b610104816100ea565b811461010e575f5ffd5b50565b5f8135905061011f816100fb565b92915050565b5f819050919050565b61013781610125565b8114610141575f5ffd5b50565b5f813590506101528161012e565b92915050565b5f5f6040838503121561016e5761016d6100c7565b5b5f61017b85828601610111565b925050602061018c85828601610144565b9150509250929050565b61019f816100ea565b82525050565b5f6040820190506101b85f830185610196565b6101c56020830184610196565b939250505056fe608060405260405161043e38038061043e83398181016040528101906100259190610203565b5f8273ffffffffffffffffffffffffffffffffffffffff166318160ddd6040518163ffffffff1660e01b8152600401602060405180830381865afa15801561006f573d5f5f3e3d5ffd5b505050506040513d601f19601f820116820180604052508101906100939190610274565b90508273ffffffffffffffffffffffffffffffffffffffff1663a0712d686706f05b59d3b2000060056040518363ffffffff1660e01b81526004016100d891906102e1565b5f604051808303818588803b1580156100ef575f5ffd5b505af1158015610101573d5f5f3e3d5ffd5b50505050505f600190505b6005811161019c578373ffffffffffffffffffffffffffffffffffffffff166323b872dd3085848661013e9190610327565b6040518463ffffffff1660e01b815260040161015c93929190610378565b5f604051808303815f87803b158015610173575f5ffd5b505af1158015610185573d5f5f3e3d5ffd5b505050508080610194906103ad565b91505061010c565b505050506103f4565b5f5ffd5b5f73ffffffffffffffffffffffffffffffffffffffff82169050919050565b5f6101d2826101a9565b9050919050565b6101e2816101c8565b81146101ec575f5ffd5b50565b5f815190506101fd816101d9565b92915050565b5f5f60408385031215610219576102186101a5565b5b5f610226858286016101ef565b9250506020610237858286016101ef565b9150509250929050565b5f819050919050565b61025381610241565b811461025d575f5ffd5b50565b5f8151905061026e8161024a565b92915050565b5f60208284031215610289576102886101a5565b5b5f61029684828501610260565b91505092915050565b5f819050919050565b5f819050919050565b5f6102cb6102c66102c18461029f565b6102a8565b610241565b9050919050565b6102db816102b1565b82525050565b5f6020820190506102f45f8301846102d2565b92915050565b7f4e487b71000000000000000000000000000000000000000000000000000000005f52601160045260245ffd5b5f61033182610241565b915061033c83610241565b9250828201905080821115610354576103536102fa565b5b92915050565b610363816101c8565b82525050565b61037281610241565b82525050565b5f60608201905061038b5f83018661035a565b610398602083018561035a565b6103a56040830184610369565b949350505050565b5f6103b782610241565b91507fffffffffffffffffffffffffffffffffffffffffffffffffffffffffffffffff82036103e9576103e86102fa565b5b600182019050919050565b603e806104005f395ff3fe60806040525f5ffdfea2646970667358221220eea836ef4f16303b690b51ef2a516a0fc64f1a79355cb9f469825c6bd5a0055264736f6c634300081e0033a2646970667358221220638a843277b514fa5c0012dd0941a93a1fd21913ddc7e91badb98d447e690b1e64736f6c634300081e0033",
					"opcodes": "PUSH1 0x80 PUSH1 0x40 MSTORE CALLVALUE DUP1 ISZERO PUSH1 0xE JUMPI PUSH0 PUSH0 REVERT JUMPDEST POP CALLER PUSH0 PUSH0 PUSH2 0x100 EXP DUP2 SLOAD DUP2 PUSH20 0xFFFFFFFFFFFFFFFFFFFFFFFFFFFFFFFFFFFFFFFF MUL NOT AND SWAP1 DUP4 PUSH20 0xFFFFFFFFFFFFFFFFFFFFFFFFFFFFFFFFFFFFFFFF AND MUL OR SWAP1 SSTORE POP PUSH2 0x640 DUP1 PUSH2 0x5B PUSH0 CODECOPY PUSH0 RETURN INVALID PUSH1 0x80 PUSH1 0x40 MSTORE PUSH1 0x4 CALLDATASIZE LT PUSH2 0x1D JUMPI PUSH0 CALLDATALOAD PUSH1 0xE0 SHR DUP1 PUSH4 0x4956EAF0 EQ PUSH2 0x21 JUMPI JUMPDEST PUSH0 PUSH0 REVERT JUMPDEST PUSH2 0x3B PUSH1 0x4 DUP1 CALLDATASIZE SUB DUP2 ADD SWAP1 PUSH2 0x36 SWAP2 SWAP1 PUSH2 0x158 JUMP JUMPDEST PUSH2 0x3D JUMP JUMPDEST STOP JUMPDEST PUSH0 PUSH0 SWAP1 POP JUMPDEST DUP2 DUP2 LT ISZERO PUSH2 0xB5 JUMPI PUSH7 0xB1A2BC2EC50000 DUP4 PUSH0 PUSH0 SWAP1 SLOAD SWAP1 PUSH2 0x100 EXP SWAP1 DIV PUSH20 0xFFFFFFFFFFFFFFFFFFFFFFFFFFFFFFFFFFFFFFFF AND PUSH1 0x40 MLOAD PUSH2 0x80 SWAP1 PUSH2 0xBA JUMP JUMPDEST PUSH2 0x8B SWAP3 SWAP2 SWAP1 PUSH2 0x1A5 JUMP JUMPDEST PUSH1 0x40 MLOAD DUP1 SWAP2 SUB SWAP1 DUP3 CREATE SWAP1 POP DUP1 ISZERO DUP1 ISZERO PUSH2 0xA6 JUMPI RETURNDATASIZE PUSH0 PUSH0 RETURNDATACOPY RETURNDATASIZE PUSH0 REVERT JUMPDEST POP POP DUP1 DUP1 PUSH1 0x1 ADD SWAP2 POP POP PUSH2 0x42 JUMP JUMPDEST POP POP POP JUMP JUMPDEST PUSH2 0x43E DUP1 PUSH2 0x1CD DUP4 CODECOPY ADD SWAP1 JUMP JUMPDEST PUSH0 PUSH0 REVERT JUMPDEST PUSH0 PUSH20 0xFFFFFFFFFFFFFFFFFFFFFFFFFFFFFFFFFFFFFFFF DUP3 AND SWAP1 POP SWAP2 SWAP1 POP JUMP JUMPDEST PUSH0 PUSH2 0xF4 DUP3 PUSH2 0xCB JUMP JUMPDEST SWAP1 POP SWAP2 SWAP1 POP JUMP JUMPDEST PUSH2 0x104 DUP2 PUSH2 0xEA JUMP JUMPDEST DUP2 EQ PUSH2 0x10E JUMPI PUSH0 PUSH0 REVERT JUMPDEST POP JUMP JUMPDEST PUSH0 DUP2 CALLDATALOAD SWAP1 POP PUSH2 0x11F DUP2 PUSH2 0xFB JUMP JUMPDEST SWAP3 SWAP2 POP POP JUMP JUMPDEST PUSH0 DUP2 SWAP1 POP SWAP2 SWAP1 POP JUMP JUMPDEST PUSH2 0x137 DUP2 PUSH2 0x125 JUMP JUMPDEST DUP2 EQ PUSH2 0x141 JUMPI PUSH0 PUSH0 REVERT JUMPDEST POP JUMP JUMPDEST PUSH0 DUP2 CALLDATALOAD SWAP1 POP PUSH2 0x152 DUP2 PUSH2 0x12E JUMP JUMPDEST SWAP3 SWAP2 POP POP JUMP JUMPDEST PUSH0 PUSH0 PUSH1 0x40 DUP4 DUP6 SUB SLT ISZERO PUSH2 0x16E JUMPI PUSH2 0x16D PUSH2 0xC7 JUMP JUMPDEST JUMPDEST PUSH0 PUSH2 0x17B DUP6 DUP3 DUP7 ADD PUSH2 0x111 JUMP JUMPDEST SWAP3 POP POP PUSH1 0x20 PUSH2 0x18C DUP6 DUP3 DUP7 ADD PUSH2 0x144 JUMP JUMPDEST SWAP2 POP POP SWAP3 POP SWAP3 SWAP1 POP JUMP JUMPDEST PUSH2 0x19F DUP2 PUSH2 0xEA JUMP JUMPDEST DUP3 MSTORE POP POP JUMP JUMPDEST PUSH0 PUSH1 0x40 DUP3 ADD SWAP1 POP PUSH2 0x1B8 PUSH0 DUP4 ADD DUP6 PUSH2 0x196 JUMP JUMPDEST PUSH2 0x1C5 PUSH1 0x20 DUP4 ADD DUP5 PUSH2 0x196 JUMP JUMPDEST SWAP4 SWAP3 POP POP POP JUMP INVALID PUSH1 0x80 PUSH1 0x40 MSTORE PUSH1 0x40 MLOAD PUSH2 0x43E CODESIZE SUB DUP1 PUSH2 0x43E DUP4 CODECOPY DUP2 DUP2 ADD PUSH1 0x40 MSTORE DUP2 ADD SWAP1 PUSH2 0x25 SWAP2 SWAP1 PUSH2 0x203 JUMP JUMPDEST PUSH0 DUP3 PUSH20 0xFFFFFFFFFFFFFFFFFFFFFFFFFFFFFFFFFFFFFFFF AND PUSH4 0x18160DDD PUSH1 0x40 MLOAD DUP2 PUSH4 0xFFFFFFFF AND PUSH1 0xE0 SHL DUP2 MSTORE PUSH1 0x4 ADD PUSH1 0x20 PUSH1 0x40 MLOAD DUP1 DUP4 SUB DUP2 DUP7 GAS STATICCALL ISZERO DUP1 ISZERO PUSH2 0x6F JUMPI RETURNDATASIZE PUSH0 PUSH0 RETURNDATACOPY RETURNDATASIZE PUSH0 REVERT JUMPDEST POP POP POP POP PUSH1 0x40 MLOAD RETURNDATASIZE PUSH1 0x1F NOT PUSH1 0x1F DUP3 ADD AND DUP3 ADD DUP1 PUSH1 0x40 MSTORE POP DUP2 ADD SWAP1 PUSH2 0x93 SWAP2 SWAP1 PUSH2 0x274 JUMP JUMPDEST SWAP1 POP DUP3 PUSH20 0xFFFFFFFFFFFFFFFFFFFFFFFFFFFFFFFFFFFFFFFF AND PUSH4 0xA0712D68 PUSH8 0x6F05B59D3B20000 PUSH1 0x5 PUSH1 0x40 MLOAD DUP4 PUSH4 0xFFFFFFFF AND PUSH1 0xE0 SHL DUP2 MSTORE PUSH1 0x4 ADD PUSH2 0xD8 SWAP2 SWAP1 PUSH2 0x2E1 JUMP JUMPDEST PUSH0 PUSH1 0x40 MLOAD DUP1 DUP4 SUB DUP2 DUP6 DUP9 DUP1 EXTCODESIZE ISZERO DUP1 ISZERO PUSH2 0xEF JUMPI PUSH0 PUSH0 REVERT JUMPDEST POP GAS CALL ISZERO DUP1 ISZERO PUSH2 0x101 JUMPI RETURNDATASIZE PUSH0 PUSH0 RETURNDATACOPY RETURNDATASIZE PUSH0 REVERT JUMPDEST POP POP POP POP POP PUSH0 PUSH1 0x1 SWAP1 POP JUMPDEST PUSH1 0x5 DUP2 GT PUSH2 0x19C JUMPI DUP4 PUSH20 0xFFFFFFFFFFFFFFFFFFFFFFFFFFFFFFFFFFFFFFFF AND PUSH4 0x23B872DD ADDRESS DUP6 DUP5 DUP7 PUSH2 0x13E SWAP2 SWAP1 PUSH2 0x327 JUMP JUMPDEST PUSH1 0x40 MLOAD DUP5 PUSH4 0xFFFFFFFF AND PUSH1 0xE0 SHL DUP2 MSTORE PUSH1 0x4 ADD PUSH2 0x15C SWAP4 SWAP3 SWAP2 SWAP1 PUSH2 0x378 JUMP JUMPDEST PUSH0 PUSH1 0x40 MLOAD DUP1 DUP4 SUB DUP2 PUSH0 DUP8 DUP1 EXTCODESIZE ISZERO DUP1 ISZERO PUSH2 0x173 JUMPI PUSH0 PUSH0 REVERT JUMPDEST POP GAS CALL ISZERO DUP1 ISZERO PUSH2 0x185 JUMPI RETURNDATASIZE PUSH0 PUSH0 RETURNDATACOPY RETURNDATASIZE PUSH0 REVERT JUMPDEST POP POP POP POP DUP1 DUP1 PUSH2 0x194 SWAP1 PUSH2 0x3AD JUMP JUMPDEST SWAP2 POP POP PUSH2 0x10C JUMP JUMPDEST POP POP POP POP PUSH2 0x3F4 JUMP JUMPDEST PUSH0 PUSH0 REVERT JUMPDEST PUSH0 PUSH20 0xFFFFFFFFFFFFFFFFFFFFFFFFFFFFFFFFFFFFFFFF DUP3 AND SWAP1 POP SWAP2 SWAP1 POP JUMP JUMPDEST PUSH0 PUSH2 0x1D2 DUP3 PUSH2 0x1A9 JUMP JUMPDEST SWAP1 POP SWAP2 SWAP1 POP JUMP JUMPDEST PUSH2 0x1E2 DUP2 PUSH2 0x1C8 JUMP JUMPDEST DUP2 EQ PUSH2 0x1EC JUMPI PUSH0 PUSH0 REVERT JUMPDEST POP JUMP JUMPDEST PUSH0 DUP2 MLOAD SWAP1 POP PUSH2 0x1FD DUP2 PUSH2 0x1D9 JUMP JUMPDEST SWAP3 SWAP2 POP POP JUMP JUMPDEST PUSH0 PUSH0 PUSH1 0x40 DUP4 DUP6 SUB SLT ISZERO PUSH2 0x219 JUMPI PUSH2 0x218 PUSH2 0x1A5 JUMP JUMPDEST JUMPDEST PUSH0 PUSH2 0x226 DUP6 DUP3 DUP7 ADD PUSH2 0x1EF JUMP JUMPDEST SWAP3 POP POP PUSH1 0x20 PUSH2 0x237 DUP6 DUP3 DUP7 ADD PUSH2 0x1EF JUMP JUMPDEST SWAP2 POP POP SWAP3 POP SWAP3 SWAP1 POP JUMP JUMPDEST PUSH0 DUP2 SWAP1 POP SWAP2 SWAP1 POP JUMP JUMPDEST PUSH2 0x253 DUP2 PUSH2 0x241 JUMP JUMPDEST DUP2 EQ PUSH2 0x25D JUMPI PUSH0 PUSH0 REVERT JUMPDEST POP JUMP JUMPDEST PUSH0 DUP2 MLOAD SWAP1 POP PUSH2 0x26E DUP2 PUSH2 0x24A JUMP JUMPDEST SWAP3 SWAP2 POP POP JUMP JUMPDEST PUSH0 PUSH1 0x20 DUP3 DUP5 SUB SLT ISZERO PUSH2 0x289 JUMPI PUSH2 0x288 PUSH2 0x1A5 JUMP JUMPDEST JUMPDEST PUSH0 PUSH2 0x296 DUP5 DUP3 DUP6 ADD PUSH2 0x260 JUMP JUMPDEST SWAP2 POP POP SWAP3 SWAP2 POP POP JUMP JUMPDEST PUSH0 DUP2 SWAP1 POP SWAP2 SWAP1 POP JUMP JUMPDEST PUSH0 DUP2 SWAP1 POP SWAP2 SWAP1 POP JUMP JUMPDEST PUSH0 PUSH2 0x2CB PUSH2 0x2C6 PUSH2 0x2C1 DUP5 PUSH2 0x29F JUMP JUMPDEST PUSH2 0x2A8 JUMP JUMPDEST PUSH2 0x241 JUMP JUMPDEST SWAP1 POP SWAP2 SWAP1 POP JUMP JUMPDEST PUSH2 0x2DB DUP2 PUSH2 0x2B1 JUMP JUMPDEST DUP3 MSTORE POP POP JUMP JUMPDEST PUSH0 PUSH1 0x20 DUP3 ADD SWAP1 POP PUSH2 0x2F4 PUSH0 DUP4 ADD DUP5 PUSH2 0x2D2 JUMP JUMPDEST SWAP3 SWAP2 POP POP JUMP JUMPDEST PUSH32 0x4E487B7100000000000000000000000000000000000000000000000000000000 PUSH0 MSTORE PUSH1 0x11 PUSH1 0x4 MSTORE PUSH1 0x24 PUSH0 REVERT JUMPDEST PUSH0 PUSH2 0x331 DUP3 PUSH2 0x241 JUMP JUMPDEST SWAP2 POP PUSH2 0x33C DUP4 PUSH2 0x241 JUMP JUMPDEST SWAP3 POP DUP3 DUP3 ADD SWAP1 POP DUP1 DUP3 GT ISZERO PUSH2 0x354 JUMPI PUSH2 0x353 PUSH2 0x2FA JUMP JUMPDEST JUMPDEST SWAP3 SWAP2 POP POP JUMP JUMPDEST PUSH2 0x363 DUP2 PUSH2 0x1C8 JUMP JUMPDEST DUP3 MSTORE POP POP JUMP JUMPDEST PUSH2 0x372 DUP2 PUSH2 0x241 JUMP JUMPDEST DUP3 MSTORE POP POP JUMP JUMPDEST PUSH0 PUSH1 0x60 DUP3 ADD SWAP1 POP PUSH2 0x38B PUSH0 DUP4 ADD DUP7 PUSH2 0x35A JUMP JUMPDEST PUSH2 0x398 PUSH1 0x20 DUP4 ADD DUP6 PUSH2 0x35A JUMP JUMPDEST PUSH2 0x3A5 PUSH1 0x40 DUP4 ADD DUP5 PUSH2 0x369 JUMP JUMPDEST SWAP5 SWAP4 POP POP POP POP JUMP JUMPDEST PUSH0 PUSH2 0x3B7 DUP3 PUSH2 0x241 JUMP JUMPDEST SWAP2 POP PUSH32 0xFFFFFFFFFFFFFFFFFFFFFFFFFFFFFFFFFFFFFFFFFFFFFFFFFFFFFFFFFFFFFFFF DUP3 SUB PUSH2 0x3E9 JUMPI PUSH2 0x3E8 PUSH2 0x2FA JUMP JUMPDEST JUMPDEST PUSH1 0x1 DUP3 ADD SWAP1 POP SWAP2 SWAP1 POP JUMP JUMPDEST PUSH1 0x3E DUP1 PUSH2 0x400 PUSH0 CODECOPY PUSH0 RETURN INVALID PUSH1 0x80 PUSH1 0x40 MSTORE PUSH0 PUSH0 REVERT INVALID LOG2 PUSH5 0x6970667358 0x22 SLT KECCAK256 RETURNCONTRACT 0xA8 CALLDATASIZE 0xEF 0x4F AND ADDRESS EXTCODESIZE PUSH10 0xB51EF2A516A0FC64F1A PUSH26 0x355CB9F469825C6BD5A0055264736F6C634300081E0033A26469 PUSH17 0x667358221220638A843277B514FA5C0012 0xDD MULMOD COINBASE 0xA9 GASPRICE 0x1F 0xD2 NOT SGT 0xDD 0xC7 0xE9 SHL 0xAD 0xB9 DUP14 PREVRANDAO PUSH31 0x690B1E64736F6C634300081E00330000000000000000000000000000000000 "
				},
				"gasEstimates": {
					"creation": {
						"codeDepositCost": "320000",
						"executionCost": "24617",
						"totalCost": "344617"
					},
					"external": {
						"deploy(address,uint256)": "infinite"
					}
				},
				"methodIdentifiers": {
					"deploy(address,uint256)": "4956eaf0"
				}
			},
			"storageLayout": {
				"storage": [
					{
						"astId": 75,
						"contract": "NftMint.sol:MintFactory",
						"label": "owner",
						"offset": 0,
						"slot": "0",
						"type": "t_address"
					}
				],
				"types": {
					"t_address": {
						"encoding": "inplace",
						"label": "address",
						"numberOfBytes": "20"
					}
				}
			},
			"userdoc": {
				"kind": "user",
				"methods": {},
				"version": 1
			}
		}
	}
}